{
    "_format": "hh-sol-artifact-1",
    "contractName": "GuessGame",
    "sourceName": "contracts/Game.sol",
    "abi": [
        {
            "inputs": [],
            "stateMutability": "nonpayable",
            "type": "constructor"
        },
        {
            "anonymous": false,
            "inputs": [
                {
                    "indexed": false,
                    "internalType": "uint256",
                    "name": "gameId",
                    "type": "uint256"
                },
                {
                    "indexed": false,
                    "internalType": "uint256",
                    "name": "bid",
                    "type": "uint256"
                },
                {
                    "indexed": false,
                    "internalType": "uint256",
                    "name": "participantsAvailable",
                    "type": "uint256"
                },
                {
                    "indexed": false,
                    "internalType": "uint256",
                    "name": "startTime",
                    "type": "uint256"
                }
            ],
            "name": "gameCreated",
            "type": "event"
        },
        {
            "anonymous": false,
            "inputs": [],
            "name": "gameFinished",
            "type": "event"
        },
        {
            "anonymous": false,
            "inputs": [
                {
                    "indexed": false,
                    "internalType": "uint256",
                    "name": "gameId",
                    "type": "uint256"
                },
                {
                    "indexed": false,
                    "internalType": "address",
                    "name": "participant",
                    "type": "address"
                },
                {
                    "indexed": false,
                    "internalType": "uint256",
                    "name": "number",
                    "type": "uint256"
                }
            ],
            "name": "newParticipant",
            "type": "event"
        },
        {
            "inputs": [],
            "name": "Withdraw",
            "outputs": [],
            "stateMutability": "nonpayable",
            "type": "function"
        },
        {
            "inputs": [
                {
                    "internalType": "uint256",
                    "name": "_number",
                    "type": "uint256"
                },
                {
                    "internalType": "uint256",
                    "name": "_amountOfParticipants",
                    "type": "uint256"
                }
            ],
            "name": "createGame",
            "outputs": [],
            "stateMutability": "payable",
            "type": "function"
        },
        {
            "inputs": [
                {
                    "internalType": "uint256",
                    "name": "_id",
                    "type": "uint256"
                }
            ],
            "name": "finishGame",
            "outputs": [],
            "stateMutability": "nonpayable",
            "type": "function"
        },
        {
            "inputs": [],
            "name": "getBalance",
            "outputs": [
                {
                    "internalType": "uint256",
                    "name": "",
                    "type": "uint256"
                }
            ],
            "stateMutability": "view",
            "type": "function"
        },
        {
            "inputs": [
                {
                    "internalType": "uint256",
                    "name": "_id",
                    "type": "uint256"
                }
            ],
            "name": "getGame",
            "outputs": [
                {
                    "components": [
                        {
                            "internalType": "uint256",
                            "name": "timeFinished",
                            "type": "uint256"
                        },
                        {
                            "internalType": "uint256",
                            "name": "amountOfPartcipants",
                            "type": "uint256"
                        },
                        {
                            "internalType": "uint256",
                            "name": "amountOfParticipantsAvailable",
                            "type": "uint256"
                        },
                        {
                            "internalType": "uint256",
                            "name": "bid",
                            "type": "uint256"
                        },
                        {
                            "internalType": "uint256",
                            "name": "prizePool",
                            "type": "uint256"
                        },
                        {
                            "internalType": "address[]",
                            "name": "participants",
                            "type": "address[]"
                        }
                    ],
                    "internalType": "struct GuessGame.Game",
                    "name": "",
                    "type": "tuple"
                }
            ],
            "stateMutability": "view",
            "type": "function"
        },
        {
            "inputs": [
                {
                    "internalType": "uint256",
                    "name": "_gameId",
                    "type": "uint256"
                },
                {
                    "internalType": "uint256",
                    "name": "_number",
                    "type": "uint256"
                }
            ],
            "name": "guessNumber",
            "outputs": [],
            "stateMutability": "payable",
            "type": "function"
        },
        {
            "inputs": [],
            "name": "variableToTest",
            "outputs": [
                {
                    "internalType": "uint256",
                    "name": "",
                    "type": "uint256"
                }
            ],
            "stateMutability": "view",
            "type": "function"
        }
    ],
    "bytecode": "0x608060405234801561001057600080fd5b506001600081905550611e1d806100286000396000f3fe6080604052600436106100705760003560e01c806360104cef1161004e57806360104cef146100e257806390c4e31e146100fe578063a2f77bcc1461011a578063cfe186b21461015757610070565b806312065fe0146100755780631af605c3146100a057806357ea89b6146100cb575b600080fd5b34801561008157600080fd5b5061008a610180565b60405161009791906119c6565b60405180910390f35b3480156100ac57600080fd5b506100b56101c7565b6040516100c291906119c6565b60405180910390f35b3480156100d757600080fd5b506100e06101cd565b005b6100fc60048036038101906100f79190611647565b6102f0565b005b61011860048036038101906101139190611647565b6105c2565b005b34801561012657600080fd5b50610141600480360381019061013c919061161e565b610866565b60405161014e91906119a4565b60405180910390f35b34801561016357600080fd5b5061017e6004803603810190610179919061161e565b610953565b005b6000600560003373ffffffffffffffffffffffffffffffffffffffff1673ffffffffffffffffffffffffffffffffffffffff16815260200190815260200160002054905090565b60025481565b60026000541415610213576040517f08c379a000000000000000000000000000000000000000000000000000000000815260040161020a90611984565b60405180910390fd5b60026000819055503373ffffffffffffffffffffffffffffffffffffffff166108fc600560003373ffffffffffffffffffffffffffffffffffffffff1673ffffffffffffffffffffffffffffffffffffffff168152602001908152602001600020549081150290604051600060405180830381858888f193505050501580156102a0573d6000803e3d6000fd5b506000600560003373ffffffffffffffffffffffffffffffffffffffff1673ffffffffffffffffffffffffffffffffffffffff168152602001908152602001600020819055506001600081905550565b60003411610333576040517f08c379a000000000000000000000000000000000000000000000000000000000815260040161032a906118e4565b60405180910390fd5b6064821115610377576040517f08c379a000000000000000000000000000000000000000000000000000000000815260040161036e90611964565b60405180910390fd5b6000600167ffffffffffffffff8111156103ba577f4e487b7100000000000000000000000000000000000000000000000000000000600052604160045260246000fd5b6040519080825280602002602001820160405280156103e85781602001602082028036833780820191505090505b5090503381600081518110610426577f4e487b7100000000000000000000000000000000000000000000000000000000600052603260045260246000fd5b602002602001019073ffffffffffffffffffffffffffffffffffffffff16908173ffffffffffffffffffffffffffffffffffffffff168152505060006040518060c0016040528061012c4261047b9190611aa7565b8152602001600181526020018481526020013481526020013481526020018381525090506104a960016114af565b80600360006104b860016114c5565b8152602001908152602001600020600082015181600001556020820151816001015560408201518160020155606082015181600301556080820151816004015560a082015181600501908051906020019061051492919061152c565b50905050836006600061052760016114c5565b815260200190815260200160002060003373ffffffffffffffffffffffffffffffffffffffff1673ffffffffffffffffffffffffffffffffffffffff168152602001908152602001600020819055507fca8cd8414163e6bae959b701c9819e07740fd14e86f3d0de5b1f0861ff820f016105a160016114c5565b3485426040516105b49493929190611a18565b60405180910390a150505050565b6003600083815260200190815260200160002060030154341461061a576040517f08c379a000000000000000000000000000000000000000000000000000000000815260040161061190611964565b60405180910390fd5b4260036000848152602001908152602001600020600001541015610673576040517f08c379a000000000000000000000000000000000000000000000000000000000815260040161066a90611944565b60405180910390fd5b6003600083815260200190815260200160002060020154600360008481526020019081526020016000206001015410806106c3575060006003600084815260200190815260200160002060020154145b610702576040517f08c379a00000000000000000000000000000000000000000000000000000000081526004016106f990611904565b60405180910390fd5b60036000838152602001908152602001600020600101600081548092919061072990611bf8565b919050555060036000838152602001908152602001600020600501339080600181540180825580915050600190039060005260206000200160009091909190916101000a81548173ffffffffffffffffffffffffffffffffffffffff021916908373ffffffffffffffffffffffffffffffffffffffff160217905550806006600084815260200190815260200160002060003373ffffffffffffffffffffffffffffffffffffffff1673ffffffffffffffffffffffffffffffffffffffff16815260200190815260200160002081905550346003600084815260200190815260200160002060040160008282546108209190611aa7565b925050819055507fc3ddfd2c01f5010b61a50b609cb4456e9346b52f1359a6e2bc6afc861f69b41482338360405161085a939291906119e1565b60405180910390a15050565b61086e6115b6565b600360008381526020019081526020016000206040518060c001604052908160008201548152602001600182015481526020016002820154815260200160038201548152602001600482015481526020016005820180548060200260200160405190810160405280929190818152602001828054801561094357602002820191906000526020600020905b8160009054906101000a900473ffffffffffffffffffffffffffffffffffffffff1673ffffffffffffffffffffffffffffffffffffffff16815260200190600101908083116108f9575b5050505050815250509050919050565b42600360008381526020019081526020016000206000015410806109c55750600360008281526020019081526020016000206002015460036000838152602001908152602001600020600101541480156109c457506000600360008381526020019081526020016000206002015414155b5b610a04576040517f08c379a00000000000000000000000000000000000000000000000000000000081526004016109fb90611924565b60405180910390fd5b6000610a0f826114d3565b9050806002819055506000600a600380600086815260200190815260200160002060010154610a3e9190611b2e565b610a489190611afd565b90506000811415610a62578080610a5e90611bf8565b9150505b60008167ffffffffffffffff811115610aa4577f4e487b7100000000000000000000000000000000000000000000000000000000600052604160045260246000fd5b604051908082528060200260200182016040528015610ad25781602001602082028036833780820191505090505b50905060006065600460008781526020019081526020016000206001018190555060005b600360008781526020019081526020016000206001015481101561139b5784600660008881526020019081526020016000206000600360008a81526020019081526020016000206005018481548110610b78577f4e487b7100000000000000000000000000000000000000000000000000000000600052603260045260246000fd5b9060005260206000200160009054906101000a900473ffffffffffffffffffffffffffffffffffffffff1673ffffffffffffffffffffffffffffffffffffffff1673ffffffffffffffffffffffffffffffffffffffff1681526020019081526020016000205411610cbc57600660008781526020019081526020016000206000600360008981526020019081526020016000206005018381548110610c46577f4e487b7100000000000000000000000000000000000000000000000000000000600052603260045260246000fd5b9060005260206000200160009054906101000a900473ffffffffffffffffffffffffffffffffffffffff1673ffffffffffffffffffffffffffffffffffffffff1673ffffffffffffffffffffffffffffffffffffffff1681526020019081526020016000205485610cb79190611b88565b610d91565b84600660008881526020019081526020016000206000600360008a81526020019081526020016000206005018481548110610d20577f4e487b7100000000000000000000000000000000000000000000000000000000600052603260045260246000fd5b9060005260206000200160009054906101000a900473ffffffffffffffffffffffffffffffffffffffff1673ffffffffffffffffffffffffffffffffffffffff1673ffffffffffffffffffffffffffffffffffffffff16815260200190815260200160002054610d909190611b88565b5b9150836004600088815260200190815260200160002060000154101561101c57600360008781526020019081526020016000206005018181548110610dff577f4e487b7100000000000000000000000000000000000000000000000000000000600052603260045260246000fd5b9060005260206000200160009054906101000a900473ffffffffffffffffffffffffffffffffffffffff16838281518110610e63577f4e487b7100000000000000000000000000000000000000000000000000000000600052603260045260246000fd5b602002602001019073ffffffffffffffffffffffffffffffffffffffff16908173ffffffffffffffffffffffffffffffffffffffff16815250508160046000888152602001908152602001600020600101541015610f9f57600660008781526020019081526020016000206000600360008981526020019081526020016000206005018381548110610f1e577f4e487b7100000000000000000000000000000000000000000000000000000000600052603260045260246000fd5b9060005260206000200160009054906101000a900473ffffffffffffffffffffffffffffffffffffffff1673ffffffffffffffffffffffffffffffffffffffff1673ffffffffffffffffffffffffffffffffffffffff1681526020019081526020016000205460046000888152602001908152602001600020600101819055505b8160046000888152602001908152602001600020600101819055506004600087815260200190815260200160002060000154600460008881526020019081526020016000206002018190555060046000878152602001908152602001600020600001600081548092919061101290611bf8565b9190505550611388565b816004600088815260200190815260200160002060010154111561138757600360008781526020019081526020016000206005018181548110611088577f4e487b7100000000000000000000000000000000000000000000000000000000600052603260045260246000fd5b9060005260206000200160009054906101000a900473ffffffffffffffffffffffffffffffffffffffff1683600460008981526020019081526020016000206002015481518110611102577f4e487b7100000000000000000000000000000000000000000000000000000000600052603260045260246000fd5b602002602001019073ffffffffffffffffffffffffffffffffffffffff16908173ffffffffffffffffffffffffffffffffffffffff168152505060005b848110156113855785600660008981526020019081526020016000206000868481518110611196577f4e487b7100000000000000000000000000000000000000000000000000000000600052603260045260246000fd5b602002602001015173ffffffffffffffffffffffffffffffffffffffff1673ffffffffffffffffffffffffffffffffffffffff168152602001908152602001600020541161127f5760066000888152602001908152602001600020600085838151811061122c577f4e487b7100000000000000000000000000000000000000000000000000000000600052603260045260246000fd5b602002602001015173ffffffffffffffffffffffffffffffffffffffff1673ffffffffffffffffffffffffffffffffffffffff168152602001908152602001600020548661127a9190611b88565b61131c565b856006600089815260200190815260200160002060008684815181106112ce577f4e487b7100000000000000000000000000000000000000000000000000000000600052603260045260246000fd5b602002602001015173ffffffffffffffffffffffffffffffffffffffff1673ffffffffffffffffffffffffffffffffffffffff1681526020019081526020016000205461131b9190611b88565b5b925082600460008981526020019081526020016000206001015410611372578260046000898152602001908152602001600020600101819055508060046000898152602001908152602001600020600201819055505b808061137d90611bf8565b91505061113f565b505b5b808061139390611bf8565b915050610af6565b5060005b8381101561145f578360036000888152602001908152602001600020600401546113c99190611afd565b60056000858481518110611406577f4e487b7100000000000000000000000000000000000000000000000000000000600052603260045260246000fd5b602002602001015173ffffffffffffffffffffffffffffffffffffffff1673ffffffffffffffffffffffffffffffffffffffff16815260200190815260200160002081905550808061145790611bf8565b91505061139f565b50600060036000878152602001908152602001600020600401819055507ff0f32497a3ce16c6175644fbfa017407022934c52d3b18a9269d8c2416d7f25060405160405180910390a15050505050565b6001816000016000828254019250508190555050565b600081600001549050919050565b6000606444426003600086815260200190815260200160002060010154604051602001611502939291906118a7565b6040516020818303038152906040528051906020012060001c6115259190611c4b565b9050919050565b8280548282559060005260206000209081019282156115a5579160200282015b828111156115a45782518260006101000a81548173ffffffffffffffffffffffffffffffffffffffff021916908373ffffffffffffffffffffffffffffffffffffffff1602179055509160200191906001019061154c565b5b5090506115b291906115ec565b5090565b6040518060c001604052806000815260200160008152602001600081526020016000815260200160008152602001606081525090565b5b808211156116055760008160009055506001016115ed565b5090565b60008135905061161881611dd0565b92915050565b60006020828403121561163057600080fd5b600061163e84828501611609565b91505092915050565b6000806040838503121561165a57600080fd5b600061166885828601611609565b925050602061167985828601611609565b9150509250929050565b600061168f838361169b565b60208301905092915050565b6116a481611bbc565b82525050565b6116b381611bbc565b82525050565b60006116c482611a6d565b6116ce8185611a85565b93506116d983611a5d565b8060005b8381101561170a5781516116f18882611683565b97506116fc83611a78565b9250506001810190506116dd565b5085935050505092915050565b6000611724601783611a96565b915061172f82611cda565b602082019050919050565b6000611747601183611a96565b915061175282611d03565b602082019050919050565b600061176a601683611a96565b915061177582611d2c565b602082019050919050565b600061178d600d83611a96565b915061179882611d55565b602082019050919050565b60006117b0600f83611a96565b91506117bb82611d7e565b602082019050919050565b60006117d3601f83611a96565b91506117de82611da7565b602082019050919050565b600060c0830160008301516118016000860182611872565b5060208301516118146020860182611872565b5060408301516118276040860182611872565b50606083015161183a6060860182611872565b50608083015161184d6080860182611872565b5060a083015184820360a086015261186582826116b9565b9150508091505092915050565b61187b81611bee565b82525050565b61188a81611bee565b82525050565b6118a161189c82611bee565b611c41565b82525050565b60006118b38286611890565b6020820191506118c38285611890565b6020820191506118d38284611890565b602082019150819050949350505050565b600060208201905081810360008301526118fd81611717565b9050919050565b6000602082019050818103600083015261191d8161173a565b9050919050565b6000602082019050818103600083015261193d8161175d565b9050919050565b6000602082019050818103600083015261195d81611780565b9050919050565b6000602082019050818103600083015261197d816117a3565b9050919050565b6000602082019050818103600083015261199d816117c6565b9050919050565b600060208201905081810360008301526119be81846117e9565b905092915050565b60006020820190506119db6000830184611881565b92915050565b60006060820190506119f66000830186611881565b611a0360208301856116aa565b611a106040830184611881565b949350505050565b6000608082019050611a2d6000830187611881565b611a3a6020830186611881565b611a476040830185611881565b611a546060830184611881565b95945050505050565b6000819050602082019050919050565b600081519050919050565b6000602082019050919050565b600082825260208201905092915050565b600082825260208201905092915050565b6000611ab282611bee565b9150611abd83611bee565b9250827fffffffffffffffffffffffffffffffffffffffffffffffffffffffffffffffff03821115611af257611af1611c7c565b5b828201905092915050565b6000611b0882611bee565b9150611b1383611bee565b925082611b2357611b22611cab565b5b828204905092915050565b6000611b3982611bee565b9150611b4483611bee565b9250817fffffffffffffffffffffffffffffffffffffffffffffffffffffffffffffffff0483118215151615611b7d57611b7c611c7c565b5b828202905092915050565b6000611b9382611bee565b9150611b9e83611bee565b925082821015611bb157611bb0611c7c565b5b828203905092915050565b6000611bc782611bce565b9050919050565b600073ffffffffffffffffffffffffffffffffffffffff82169050919050565b6000819050919050565b6000611c0382611bee565b91507fffffffffffffffffffffffffffffffffffffffffffffffffffffffffffffffff821415611c3657611c35611c7c565b5b600182019050919050565b6000819050919050565b6000611c5682611bee565b9150611c6183611bee565b925082611c7157611c70611cab565b5b828206905092915050565b7f4e487b7100000000000000000000000000000000000000000000000000000000600052601160045260246000fd5b7f4e487b7100000000000000000000000000000000000000000000000000000000600052601260045260246000fd5b7f76616c7565206973206e6f742073756666696369616e74000000000000000000600082015250565b7f4e6f7420656e6f75676820706c61636573000000000000000000000000000000600082015250565b7f6e6f742074696d652079657420746f2066696e69736800000000000000000000600082015250565b7f67616d652066696e697368656400000000000000000000000000000000000000600082015250565b7f696e636f72726563742076616c75650000000000000000000000000000000000600082015250565b7f5265656e7472616e637947756172643a207265656e7472616e742063616c6c00600082015250565b611dd981611bee565b8114611de457600080fd5b5056fea2646970667358221220453829903625bf2f874277be0ecfd7da4dd98ba7a834f07a657945cc7429723464736f6c63430008040033",
    "linkReferences": {},
    "deployedLinkReferences": {}
}